:1000000033C000004DC000004BC0000093C500008D
:100010007EC5000045C0000043C0000041C0000094
:100020003FC000003DC000003BC0000039C00000E0
:1000300037C0000035C0000033C0000031C00000F0
:100040006AC700002DC000000C94300929C00000D0
:1000500027C0000025C0000023C0000021C0000010
:100060001FC000001DC0000011241FBECFEFD8E04C
:10007000DEBFCDBF13E0A0E0B1E0E8E1FCE102C0EB
:1000800005900D92A634B107D9F724E0A6E4B3E0B9
:1000900001C01D92AB3FB207E1F760D50C940A0E88
:1000A000AFCF0FB6F8946093F7047093F804809381
:1000B000F9049093FA040FBE0895FC010FB6F8946A
:1000C0006091F7047091F8048091F9049091FA041A
:1000D0000FBE309721F060837183828393830895EC
:1000E0008F938FB78F93F8948091F7048F5F8093ED
:1000F000F7048091F8048F4F8093F8048091F904FD
:100100008F4F8093F9048091FA048F4F8093FA0403
:100110008F918FBF8F910895CF93DF931F92CDB7AB
:10012000DEB78FEF809364008FB78983F89489815D
:100130005F9350E85093610050E0509361005F91ED
:100140008FBF0F90DF91CF910895CF93DF931F92D0
:10015000CDB7DEB79FB79983F8949981811106C016
:100160006095809164006823609364009FBF0F9046
:10017000DF91CF9108951F93CF93DF93D82F162F40
:10018000C8E0812FD0FF02C08BD001C093D0D6959C
:10019000C150B9F7DF91CF911F9108951F93CF936D
:1001A000DF93182FD8E0C0E0C695812F8CD0811145
:1001B000C068D150C9F78C2FDF91CF911F9108955E
:1001C000EF92FF921F93CF93DF937C01162F85E56B
:1001D000D2DFE70188E0E80EF11C612F8991CBDFC7
:1001E000CE15DF05D1F7DF91CF911F91FF90EF90F2
:1001F0000895CF92DF92EF92FF920F931F93CF93C8
:10020000DF938C01D62EF42EF894642F80EFB3DFA9
:10021000C1E0E12CD1E08F2D56D0C82E8F2D53D0C8
:10022000CC2039F0811130C0F80180818C2B808383
:1002300019C0F8019081882321F08C2F8095982394
:1002400003C0DD1204C09C2BF80190830BC0DD16A7
:1002500030F48C2F80959823F801908302C09C2362
:1002600009F4ED2EF80180818C2319F08F2D18D020
:1002700002C08F2D1FD0DF5FCC0F19F40F5F1F4F0F
:10028000C1E0D13441F601C0E12C78948E2DDF918C
:10029000CF911F910F91FF90EF90DF90CF90089535
:1002A0002898209A00C02098289A85E28A95F1F72C
:1002B00000C008952898209A85E28A95F1F7209841
:1002C000289A00C008952898209A00C02098289A5B
:1002D00083E08A95F1F7000083B1817095E29A95E9
:1002E000F1F700C008952898209A86EE90E00197D3
:1002F000F1F70000F8942098289A95E29A95F1F782
:1003000093B19170789488EB8A95F1F7000081E0C1
:10031000911180E00895EF92FF921F93CF93DF93A6
:10032000CDB7DEB72C970FB6F894DEBF0FBECDBFAA
:1003300088E0EAE0F1E0DE01119601900D928A95E5
:10034000E1F78091120190911301A0911401B091F5
:10035000150189879A87AB87BC87FE0131969E017C
:10036000275F3F4F81E090E0E217F307D9F1419119
:100370005191DA0163E0B695A7956A95E1F7BB273D
:10038000BD01660F771FA60FB71F909611961C919F
:100390001197BA01677077277C0102C0EE0CFF1C31
:1003A0006A95E2F7B701612B11966C93DA01BB27CE
:1003B00053E0B695A7955A95E1F7BD01660F771FF3
:1003C000A60FB71F909612965C9112974770BC01CA
:1003D00001C0660F4A95EAF7462F409545231296CD
:1003E0004C93C2CF9E01235F3F4F41E050E0E217A4
:1003F000F30741F181919191DC0163E0B695A795F6
:100400006A95E1F7BB27BD01660F771FA60FB71FDF
:10041000909687709927BA0102C0660F771F8A9558
:10042000E2F7CB0111961C911197609570956123AD
:1004300011966C93119712969C911297892B129694
:100440008C93D5CF5A9A5A985A9A2C960FB6F894FC
:10045000DEBF0FBECDBFDF91CF911F91FF90EF9018
:1004600008959093470380934603FC0123E0F6959B
:10047000E7952A95E1F7FF279F01220F331FE20F2F
:10048000F31FB0969C012770332781E090E002C0F3
:10049000880F991F2A95E2F741819C01209530959C
:1004A000242321839281892B82838CEC91E0019714
:1004B000F1F700C000000895CF92DF92EF92FF9213
:1004C0000F931F93CF93DF936B01FC01E190F190A9
:1004D0008F0181E008DF60E070E0C0E0D0E0F6016D
:1004E00080819181C817D907DCF4209759F0F80171
:1004F00034970190F081E02D88E0D70101900D92B2
:100500008A95E1F740E0C70174DE682F70E021961C
:100510006115710529F0F801E190F1908F01DFCFAD
:10052000F601D183C083DF91CF911F910F91FF908E
:10053000EF90DF90CF900895CF93DF93EC0181E0AF
:10054000D2DE811103C023E630E032C0F89460E0CF
:10055000CE0136DE60E084E40EDE78942FEF4FE9C2
:1005600085E0215040408040E1F700C000C081E0BC
:10057000BADE882341F3F89460E0CE0121DE60E02A
:100580008EEBF9DD80E00ADEC82F80E007DE78948C
:10059000982F9770C295CF702C2F30E040E1949F38
:1005A000200D311D1124887F19F0319521953109D5
:1005B000C901DF91CF910895FC0123E0F695E795FD
:1005C0002A95E1F7FF279F01220F331FE20FF31F48
:1005D000B0969C0127703327328181E090E001C002
:1005E000880F2A95EAF7662319F0832B82830895F2
:1005F00080958323828308955F9A5E9A5D9A5C9AC0
:100600000895CF93DF93EC015B9881E0672B09F4A9
:1006100080E0682F80E190E0CFDF419A6C2F61701D
:100620008FE190E0C9DFBE017695679561708EE13C
:1006300090E0C2DFBE01769567957695679561700B
:100640008DE190E0B9DF23E0D695C7952A95E1F7D3
:100650006C2F61708CE190E0AFDF00C04198409852
:100660008FE18A95F1F7DF91CF910895CF93DF93D2
:10067000EC01F8948CEC91E00197F1F700C00000D8
:1006800060E070E0CE0124E0959587952A95E1F72A
:10069000B8DF60E070E0CE01B4DF9FE19A95F1F73A
:1006A000ABDF8FE18A95F1F77894DF91CF910895D0
:1006B000CF93DF93EC01F89461E070E024E095952E
:1006C00087952A95E1F79DDF61E070E0CE0199DF23
:1006D00088E18A95F1F700C07894DF91CF91089571
:1006E00060E070E082E090E08CDF60E070E088E243
:1006F00090E087DF81DF8DE38A95F1F700C00895F0
:100700000F931F93CF93DF938C01EB0140ED50E0EB
:100710006CE573E086E793E068D78CE593E0CDDC89
:1007200043E150E0B80182E693E084D7D0936103BF
:10073000C0936003DF91CF911F910F910895EF92C5
:10074000FF920F931F93CF93DF937B01892B19F4B3
:1007500080E090E002C080E490E0806887DF87015D
:10076000E801CE19DF09D801ED918D01EE2339F0B2
:10077000F0E0E35BFE4F808190E09ADFF1CFC03183
:10078000D1052CF480E190E093DF2196F8CFDF9142
:10079000CF911F910F91FF90EF9008954F925F922C
:1007A0006F927F928F929F92AF92BF92CF92DF9281
:1007B000EF92FF920F931F93CF93DF93CDB7DEB7E6
:1007C000A4970FB6F894DEBF0FBECDBF8C018AE1AF
:1007D000809FA001819F500D112480E090E009309E
:1007E000110560F44A96FA01E80FF91FE85BFC4F27
:1007F0002081211105C00F5F1F4FF1CF00E010E0F5
:100800008AE1809FF001819FF00D1124E45AFC4F92
:1008100080809180A280B38068012FEFC21AD20A33
:10082000CE0181964ADC49A05AA06BA07CA0C301EE
:10083000B201681979098A099B099E012F5F3F4F10
:100840007901643671058105910550F4C20188195A
:1008500099099F938F93DF92CF928AE291E015C01E
:1008600060312EE072078105910540F40FD49F930B
:100870008F93DF92CF9285E391E007C000D49F93DE
:100880008F93DF92CF9282E491E09F938F93FF92B8
:10089000EF92DFD60FB6F894DEBF0FBECDBF8AE170
:1008A000809F6001819FD00C1124F601E45AFC4F17
:1008B00064817581C701AAD6B70188E493E0B1D6F7
:1008C000892B51F0B70180E090E039DFB6016E5915
:1008D0007C4F81E090E033DFC801A4960FB6F89416
:1008E000DEBF0FBECDBFDF91CF911F910F91FF9063
:1008F000EF90DF90CF90BF90AF909F908F907F90C0
:100900006F905F904F900895EF92FF921F93CF9357
:10091000DF93CDB7DEB72E970FB6F894DEBF0FBECC
:10092000CDBFF8948EE0E6E1F1E0DE011196019092
:100930000D928A95E1F7DE0111969E01215F3F4FEE
:1009400081E090E02A173B07A9F14D915D91FA01F2
:1009500063E0F695E7956A95E1F7FF27BF01660F1B
:10096000771FE60FF71FB0961181BA0167707727DE
:100970007C0102C0EE0CFF1C6A95E2F7B701612B07
:100980006183FA01FF2753E0F695E7955A95E1F761
:10099000BF01660F771FE60FF71FB09652814770B1
:1009A000BC0101C0660F4A95EAF7462F40954523E2
:1009B0004283C8CF21DE789480E09AE50197F1F771
:1009C000F89460E070E083E090E01BDE15DE98E1D3
:1009D0009A95F1F700C084DE83DE7894F89460E0A5
:1009E00070E083E090E00DDE07DE88E18A95F1F7A4
:1009F00000C076DE75DE78948CE090E037DE81E032
:100A000090E034DE89E993E00197F1F700C086E0D9
:100A100090E02E960FB6F894DEBF0FBECDBFDF91EB
:100A2000CF911F91FF90EF9021CE6EDF8AEEECE523
:100A3000F3E0DF011D928A95E9F70895F999FECF59
:100A4000F89420E032E032BD21BD91E0811101C077
:100A500090E090BDFA9AF99A7894089551DE80E07A
:100A600090E09CCECF93DF93EC01459880910001FC
:100A7000843041F080E0E2DF84E0809300018EE684
:100A800094E01BDB6DE472E0CE01DF91CF91E6CF05
:100A9000CF92DF92EF92FF921F93CF93DF93EC01FF
:100AA00090910001943049F0233011F0933029F0F7
:100AB0006CE572E082E592E022C0122F6A017B01B0
:100AC00081E0BCDF459A109300018AE694E0F5DAF4
:100AD00040916A0450916B0460916C0470916D04B4
:100AE000C40ED51EE61EF71EC0926604D09267049F
:100AF000E0926804F09269046CE572E0CE01DF9147
:100B0000CF911F91FF90EF90DF90CF90A7CF1F92D2
:100B10000F920FB60F9211248F93329905C08091D6
:100B20006C008B7F80936C008F910F900FBE0F90A5
:100B30001F9018951F920F920FB60F9211248F934A
:100B40009F9381E090E090937304809372049F914F
:100B50008F910F900FBE0F901F901895CF93DF933A
:100B6000CDB7DEB7E2970FB6F894DEBF0FBECDBFAC
:100B7000D3DAD1DB4AE160E070E28CE190E02FD281
:100B8000F894A8958091600088618093600089E264
:100B9000809360007894789448DF43E150E064E10A
:100BA00070E082E190E0A8D382E090E0B3D3F894C3
:100BB00080916B00826080936B00809168008160FF
:100BC00080936800789488E090E04BDC8EE694E0B7
:100BD00074DA8AE694E071DA81E090E098A78FA356
:100BE00086E494E09AA389A3BE01695D7F4FCE019C
:100BF000819662DC8FA198A5892B09F45AC0809157
:100C00004D041F928F9380914C041F928F9380917B
:100C10004B041F928F9380914A041F928F9380916F
:100C200049041F928F93809148041F928F93809163
:100C300047041F928F93809146041F928F9381E601
:100C400092E09F938F938E010F5F1F4F1F930F931F
:100C500000D562E872E0C80101DFA8952FEF8FE1AF
:100C60009CE1215080409040E1F700C000C0A89571
:100C700086E494E061DC9F938F9387E892E09F93F2
:100C80008F931F930F93E5D46CE872E0C801E6DE02
:100C9000A8952FEF8FE19CE1215080409040E1F733
:100CA00000C000C0A8950FB6F894DEBF0FBECDBF40
:100CB00005C061E972E086E992E0D0DEF999FECFE5
:100CC00080E092E092BD81BDF89A80B5882341F022
:100CD00022E040E15EE060E070E083EA92E0D8DE8E
:100CE000E12CF12C8DE0682E83E0782E8E010F5FD1
:100CF0001F4F91E0A92E93E0B92E21EF822E22E022
:100D0000922E86E0E4E2F1E0DE01919601900D92F0
:100D10008A95E1F7CE018B96D0D9AE01415D5F4F48
:100D2000BE016F5C7F4FCE01819635D3009719F0DD
:100D3000019769F01DC080EB92E003D321E040E30E
:100D40005AE260E070E082EC92E0A2DEBAC08CEC85
:100D500092E0F7D280910001833031F46FED72E0C0
:100D600084EE92E07BDEADC084EE92E07BDEA9C033
:100D7000CE018796A2D9209100018FA198A5A9A59F
:100D8000BAA5243089F540916E0450916F046091AA
:100D90007004709171041C012D01241A350A460A51
:100DA000570AC201B10121E8221621E5320621E0ED
:100DB0004206510408F448C062D19F938F939F92DA
:100DC0008F921F930F9345D422E040E35AE260E0F4
:100DD00070E0C8015DDE0F900F900F900F900F90A4
:100DE0000F9081E090E032C040916604509167041A
:100DF0006091680470916904481759076A077B0776
:100E000018F580916A0490916B04A0916C04B091E4
:100E10006D041A012B01281A390A4A0A5B0AC20119
:100E2000B10134D19F938F93BF92AF921F930F93D1
:100E300010D4C80117DE0F900F900F900F900F90F5
:100E40000F9081E090E002C080E090E0892BC9F52E
:100E500086E494E071DB6C01CE0187962ED92BEFEE
:100E6000C2162FEFD2066CF580910001843049F54F
:100E70008FA198A5A9A5BAA540916E0450916F04C1
:100E80006091700470917104841B950BA60BB70BD5
:100E900081339A42A105B105A0F0DF92CF927F92F3
:100EA0006F921F930F93D5D323E048E552E060E0A3
:100EB00070E0C801EDDD0F900F900F900F900F9034
:100EC0000F908091720490917304892B69F0E11462
:100ED000F10469F4109273041092720415DD81E03C
:100EE00090E05CDC7C010BC0E114F10429F0C70147
:100EF000019654DC7C0103C080E090E04FDCA895B3
:100F00008FEF9FE12CE1815090402040E1F700C03D
:100F100000C0A895F6CE1F920F920FB60F92112423
:100F20002F933F934F935F936F937F938F939F93F1
:100F3000AF93BF93EF93FF9380917B0490917C04D8
:100F4000019690937C0480937B04209179043091E6
:100F50007A048217930730F010927C0410927B047D
:100F6000BFD82CC020917B0430917C048091770401
:100F7000909178042817390709F580917404882323
:100F8000E9F0E82FF0E093E0F695E7959A95E1F720
:100F90009F01220F331FE20FF31FB0963281282FDB
:100FA000277081E090E001C0880F2A95EAF7982F1A
:100FB0009095932392839281892B8283FF91EF9165
:100FC000BF91AF919F918F917F916F915F914F9161
:100FD0003F912F910F900FBE0F901F901895CF93B8
:100FE000DF932091750430917604232B09F044C0DF
:100FF000DC01CB0140937404E42FF0E023E0F6958C
:10100000E7952A95E1F79F01220F331FE20FF31FA7
:10101000B09652814770C1E0D0E09E0101C0220F1E
:101020004A95EAF7252B228362E1B695A795979515
:1010300087956A95D1F790937A0480937904BC01DF
:1010400076956795709378046093770460E070E01C
:10105000CB0127D860E280E078D881E883BD14BC5A
:1010600085E085BD80916E00816080936E0013BC29
:10107000D0937604C0937504DF91CF91089520E159
:101080003EE040E050E08FD2C90108952CE330E00B
:1010900040E050E088D2C9010895FC0123E0F695B4
:1010A000E7952A95E1F7FF279F01220F331FE20FF3
:1010B000F31FB0969C0127703327328181E090E0C6
:1010C00001C0880F2A95EAF7662319F0832B8283E3
:1010D00008958095832382830895109209011092C8
:1010E000080180E7E1E8F4E0DF011D928A95E9F765
:1010F0008091C00087FF03C080EC90E0AFC10895ED
:10110000AF92BF92CF92DF92EF92FF920F931F9315
:10111000CF93DF939C013327F3E036952795FA951B
:10112000E1F75901AA0CBB1CD501A20FB31F909681
:10113000582F577061E070E0EB0102C0CC0FDD1F4B
:101140005A95E2F7AE01FC2EEC2EE09401E010E09F
:10115000009739F012966C9112976F2912966C9342
:101160001297DFEFEFECF2E0D150E040F040E1F712
:1011700000C000C0009739F012966C9112976E2152
:1011800012966C9312976FEF7FECC2E06150704043
:10119000C040E1F700C000C0C091F504D091F60452
:1011A000BE0153E0769567955A95E1F777276B0175
:1011B000CC0CDD1C6C0D7D1DFB01D0A0C770DD27A4
:1011C000B80101C0660FCA95EAF76D2109F4C0CFD6
:1011D000892B39F02A0D3B1DF901B0968281482BED
:1011E00042838FEF98E00197F1F700C00000DF9194
:1011F000CF911F910F91FF90EF90DF90CF90BF9014
:10120000AF90089560E08091F3049091F40445DF7D
:1012100061E08091F1049091F2043FDF80E090E082
:101220006FCF61E08091F3049091F40436DF61E0C8
:101230008091F1049091F20430CFCF93DF93F1DFEE
:10124000C0ECD0E088818D7F888361E071E080EC24
:1012500090E064D1898180688983DF91CF9108957E
:101260001F920F920FB60F9211242F933F934F931B
:101270005F936F937F938F939F93AF93BF93EF93FE
:10128000FF9380EC90E0EAD02091080130910901B1
:1012900037FD1DC020910801309109012F3631051D
:1012A000B0F42091080130910901A9014F5F5F4F0F
:1012B0005093090140930801F901EF57FB4F8083D8
:1012C000E0910801F0910901EF57FB4F10828DE783
:1012D00094E00E945D00FF91EF91BF91AF919F91CB
:1012E0008F917F916F915F914F913F912F910F90CF
:1012F0000FBE0F901F9018955093F2044093F10485
:101300007093F4046093F3049093F6048093F504CF
:1013100094DFE3CECF93C82F75DFF894ECE6F0E0CE
:10132000208181E090E001C0880FCA95EAF7822B06
:101330008083E8E6F0E08081826080837894CF91BA
:1013400008950F931F93CF93DF938C0160E08091FA
:10135000F3049091F404A1DE60E08091F104909197
:10136000F2049BDE80E090E0CBDEE8016991662329
:1013700021F080EC90E06BD0F9CF8FEF98E00197EF
:10138000F1F700C000003EDF81E090E0DF91CF91F7
:101390001F910F910895CF92DF92EF92FF920F93DA
:1013A0001F93CF93DF936B018A017C01C0E0D0E0F3
:1013B000F701619171917F016115710539F081E843
:1013C00094E02FD1892B21F02196F2CFCFEFDFEFE0
:1013D0008091080190910901F6019183808380E05A
:1013E00090E00E945D0020917D0430917E04621B9C
:1013F000730BF80171836083CF3FFFEFDF0739F094
:1014000010920901109208011092810416C080E028
:1014100090E00E945D0000917D0410917E04209177
:101420007F0430918004DC01CB01801B910BA20B67
:10143000B30B0297A105B10518F7CE01DF91CF914B
:101440001F910F91FF90EF90DF90CF900895FC01D6
:10145000208125FFFCCF668380E00895FC01208178
:1014600027FFFCCF86810895CF92DF92EF92FF9203
:101470000F931F93CF93DF93EC016A017B01888167
:10148000B901A80181FD11C0A3E076956795579534
:101490004795AA95D1F7D901C801E3E1B695A7957B
:1014A00097958795EA95D1F710C0E4E07695679512
:1014B00057954795EA95D1F7D901C801F4E1B6955A
:1014C000A79597958795FA95D1F74C155D056E050B
:1014D0007F05D0F0C816D906EA06FB06A8F0C901B8
:1014E000B80124E096958795779567952A95D1F769
:1014F000A701960158D0DA01C9010197A109B109E4
:101500009D838C8381E001C080E0DF91CF911F91AA
:101510000F91FF90EF90DF90CF9008950F931F935E
:10152000CF93DF93EC018B01803C910521F462E0C5
:1015300080E00E94A5008A818F738A83F8019681DA
:10154000358184812A81482F4370440F297F242BC1
:101550002A8329818470880F880F2B7F822B8983AF
:101560008A818F7C832B8A838A81282F277FF8E0CA
:101570009F9FC0011124822B8A83F80140815181F1
:101580006281738100E010E22CE130E0CE016CDF7B
:10159000998198609983998190619983DF91CF9126
:1015A0001F910F910895A1E21A2EAA1BBB1BFD01EA
:1015B0000DC0AA1FBB1FEE1FFF1FA217B307E40732
:1015C000F50720F0A21BB30BE40BF50B661F771F8A
:1015D000881F991F1A9469F760957095809590956A
:1015E0009B01AC01BD01CF0108956817790768F42C
:1015F000FB01DC01E40FF51FA40FB51F02C0029030
:101600000E9241505040D8F708951FC2FB01DC01F3
:101610000D900020E9F7119701900D920020E1F75D
:101620000895FB01DC018D91019080190110D9F31F
:10163000990B0895FB01DC014150504048F00190A6
:101640000D920020C9F701C01D9241505040E0F7B3
:101650000895AEE0B0E0EEE2FBE0B3C20D891E8972
:1016600086E08C831A8309838FEF9FE79E838D83A7
:10167000AE01475E5F4F6F89788DCE01019608D02D
:10168000EF81F885E00FF11F10822E96E4E0B5C2DD
:10169000ABE0B0E0EDE4FBE086C26C017B018A01C7
:1016A000FC0117821682838181FFBFC1CE010196A2
:1016B0003C01F6019381F70193FD859193FF8191A0
:1016C0007F01882309F4ADC1853239F493FD8591FA
:1016D00093FF81917F01853221F4B60190E0C9D159
:1016E000E8CF912C212C312CFFE1F315D8F08B326F
:1016F00079F038F4803279F08332A1F4232D20611F
:101700001DC08D3261F0803369F4232D216016C035
:10171000832D8260382EE32DE4603E2E2AC0F32D07
:10172000F8601DC037FC2DC020ED280F2A3040F096
:101730008E32B9F436FC75C1232D2064322E19C0C7
:1017400036FE06C08AE0989E200D1124922E11C00C
:10175000EAE02E9E200D1124222EF32DF0623F2E62
:1017600008C08C3621F4832D8068382E02C088365C
:1017700041F4F70193FD859193FF81917F018111E0
:10178000B3CF982F9F7D9554933028F40C5F1F4F53
:101790009FE399830DC0833631F0833771F0833531
:1017A00009F055C020C0F801808189830E5F1F4F6A
:1017B00088248394912C530112C02801F2E04F0E2B
:1017C000511CF801A080B18036FE03C0692D70E085
:1017D00002C06FEF7FEFC50141D14C018201F32DB3
:1017E000FF773F2E15C0280122E0420E511CF80160
:1017F000A080B18036FE03C0692D70E002C06FEF9B
:101800007FEFC50117D14C01F32DF0683F2E820107
:1018100033FC19C0822D90E088169906A0F4B60119
:1018200080E290E026D12A94F5CFF50137FC85912E
:1018300037FE81915F01B60190E01BD121102A94FF
:1018400021E0821A91088114910479F7E1C084366D
:1018500011F0893639F5F80137FE07C060817181D2
:10186000828193810C5F1F4F08C060817181072EB8
:10187000000C880B990B0E5F1F4FF32DFF763F2E48
:1018800097FF09C090958095709561957F4F8F4F18
:101890009F4FF0683F2E2AE030E0A30126D1882E2A
:1018A000861844C0853731F4232D2F7EB22E2AE0CE
:1018B00030E025C0932D997FB92E8F36C1F018F4F2
:1018C000883579F0AEC0803719F0883721F0A9C08B
:1018D000E92FE061BE2EB4FE0DC0FB2DF460BF2EDB
:1018E00009C034FE0AC0292F2660B22E06C028E0A7
:1018F00030E005C020E130E002C020E132E0F80134
:10190000B7FE07C060817181828193810C5F1F4F98
:1019100006C06081718180E090E00E5F1F4FA301DF
:10192000E4D0882E8618FB2DFF773F2E36FE0DC0A3
:10193000232D2E7FA22E891458F434FE0BC032FCC6
:1019400009C0832D8E7EA82E05C0B82CA32C03C001
:10195000B82C01C0B92CA4FE0FC0FE01E80DF11D8A
:101960008081803321F49A2D997EA92E09C0A2FE90
:1019700006C0B394B39404C08A2D867809F0B3945A
:10198000A3FC10C0A0FE06C0B21480F4280C922C58
:101990009B180DC0B21458F4B60180E290E069D0F3
:1019A000B394F8CFB21418F42B1802C0982C212C41
:1019B000A4FE0FC0B60180E390E05BD0A2FE16C08B
:1019C000A1FC03C088E790E002C088E590E0B60182
:1019D0000CC08A2D867851F0A1FE02C08BE201C0B6
:1019E00080E2A7FC8DE2B60190E043D0891430F488
:1019F000B60180E390E03DD09A94F8CF8A94F30149
:101A0000E80DF11D8081B60190E033D08110F6CF52
:101A1000222009F44ECEB60180E290E02AD02A942A
:101A2000F7CFF6018681978102C08FEF9FEF2B964B
:101A3000E2E1D5C0FC010590615070400110D8F77B
:101A4000809590958E0F9F1F0895FB01DC0102C0C9
:101A500001900D9241505040D8F70895FC0161501B
:101A6000704001900110D8F7809590958E0F9F1FC0
:101A700008950F931F93CF93DF93FB01238121FDE3
:101A800003C08FEF9FEF2CC022FF16C04681578105
:101A9000248135814217530744F4A081B1819D010F
:101AA0002F5F3F4F318320838C93268137812F5FB7
:101AB0003F4F3783268314C08B01EC01FB01008468
:101AC000F185E02D0995892BE1F6D80116968D91C7
:101AD0009C911797019617969C938E931697CE011B
:101AE000DF91CF911F910F910895FA01AA27283015
:101AF00051F1203181F1E8946F936E7F6E5F7F4FDB
:101B00008F4F9F4FAF4FB1E03ED0B4E03CD0670F56
:101B1000781F891F9A1FA11D680F791F8A1F911DA9
:101B2000A11D6A0F711D811D911DA11D20D009F4F9
:101B300068943F912AE0269F11243019305D31933B
:101B4000DEF6CF010895462F4770405D4193B3E024
:101B50000FD0C9F7F6CF462F4F70405D4A3318F0CB
:101B6000495D31FD4052419302D0A9F7EACFB4E07C
:101B7000A6959795879577956795BA95C9F7009734
:101B80006105710508959B01AC010A2E06945795D5
:101B9000479537952795BA95C9F7620F731F841F2C
:101BA000951FA01D08952F923F924F925F926F92C2
:101BB0007F928F929F92AF92BF92CF92DF92EF92DD
:101BC000FF920F931F93CF93DF93CDB7DEB7CA1B5E
:101BD000DB0B0FB6F894DEBF0FBECDBF09942A8889
:101BE000398848885F846E847D848C849B84AA8431
:101BF000B984C884DF80EE80FD800C811B81AA81BE
:101C0000B981CE0FD11D0FB6F894DEBF0FBECDBF88
:081C1000ED010895F894FFCFE7
:101C18000480250000030000FFFF140013001500D6
:101C28001A001200090010001B0011001F001E00FE
:101C38001D001C001C033003000025643A202D25DC
:101C480064F12C200025643A202D2564ECE8ED2C65
:101C5800200025643A202D2564F72C200000000080
:101C6800000000000000000000000000000000006C
:101C7800000000000000000000000000001021C863
:101C8800222425262728292A2B2C2D2E2F303132A5
:101C9800333435363738393A3B3C3D3E3F40414294
:101CA800434445464748494A4B4C4D4E4F50515284
:101CB800535455565758595A5B005D5E5F606162D0
:101CC800636465666768696A6B6C6D6E6F70717264
:101CD800737475767778797A000000000000000048
:101CE80000000000000000000000000000000000EC
:101CF80000000000000000000000000000000000DC
:101D08000000000000A20000000000000000000029
:101D18000000000000B50000000000000041A042E3
:101D2800A1E045A3A4A5A64BA74D484FA8504354EE
:101D3800A9AA58E1ABACE2ADAE62AFB0B161B2B343
:101D4800B4E365B6B7B8B9BABBBCBD6FBE7063BF04
:101D580079E478E5C0C1E6C2C3C4C5C6C7F1F2EEEE
:101D6800EF00CFEEE2F2EEF0EDFBE920EFF3F1EA5F
:101D78000025303258253032582530325825303237
:101D880058253032582530325825303258253032CF
:101D9800580054524F4D00543D25640054454D5051
:101DA80000543F3F3F00CFE5F0E5E7E0E3F0F3E71D
:101DB800EAE000EFE5F0E5E7E0E3F0F3E7EAE0006A
:101DC8005645534E494E4F204C4F572041434B0DDB
:101DD8000A00CCE0EBEE20E2EEE4FB005645534E61
:101DE800494E4F20484947482041434B0D0A00E8D7
:101DF800E3EDF000C1E0F8EDFF20EFEEEBEDE0FFE2
:101E080000CDE5F220F1E8E3EDE0EBE0202564F712
:101E180000D2E0E9ECE0F3F2202564EC0025642030
:101E28002A432C20EFE5F0E5EBE8E2005645534E57
:101E3800494E4F205741544552204C4F570D0A00E8
:101E48005645534E494E4F20574154455220484914
:061E580047480D0A0000DE
:00000001FF
