:1000000033C000004CC000004AC0000048C00000DF
:10001000C3C1000044C0000042C0000040C0000056
:100020003EC000003CC000003AC0000038C00000E4
:1000300036C0000034C0000032C0000030C00000F4
:100040002EC000002CC00000A5C3000028C0000086
:1000500026C0000024C0000022C0000020C0000014
:100060001EC000001CC0000011241FBECFEFD8E04E
:10007000DEBFCDBF11E0A0E0B1E0EEE4F9E002C0E8
:1000800005900D92A236B107D9F721E0A2E6B1E0C2
:1000900001C01D92A03EB207E1F765D256C4B0CFB1
:1000A000FC010FB6F8946091DC017091DD01809144
:1000B000DE019091DF010FBE309721F060837183E4
:1000C000828393830895CF93DF931F92CDB7DEB7DA
:1000D0008FEF809364008FB78983F89489815F9351
:1000E00050E85093610050E0509361005F918FBFE2
:1000F0000F90DF91CF910895CF93DF931F92CDB7EB
:10010000DEB79FB79983F8949981811106C06095F5
:10011000809164006823609364009FBF0F90DF911B
:10012000CF910895FC01208125FFFCCF668380E0FC
:100130000895FC01208127FFFCCF86810895CF928E
:10014000DF92EF92FF920F931F93CF93DF93EC0117
:100150006A017B018881B901A80181FD11C0A3E07A
:100160007695679557954795AA95D1F7D901C80116
:10017000E3E1B695A79597958795EA95D1F710C0D5
:10018000E4E07695679557954795EA95D1F7D901BB
:10019000C801F4E1B695A79597958795FA95D1F79B
:1001A0004C155D056E057F05D0F0C816D906EA0628
:1001B000FB06A8F0C901B80124E0969587957795CC
:1001C00067952A95D1F7A70196018FD3DA01C90166
:1001D0000197A109B1099D838C8381E001C080E072
:1001E000DF91CF911F910F91FF90EF90DF90CF9013
:1001F00008950F931F93CF93DF93EC018B01803C05
:10020000910519F462E080E077DF8A818F738A8339
:10021000F8019681358184812A81482F4370440FEB
:10022000297F242B2A8329818470880F880F2B7FB4
:10023000822B89838A818F7C832B8A838A81282FD2
:10024000277FF8E09F9FC0011124822B8A83F80149
:10025000408151816281738100E010E22CE130E045
:10026000CE016DDF9981986099839981906199831E
:10027000DF91CF911F910F910895EF92FF921F93FD
:10028000CF93DF93CDB7DEB72A970FB6F894DEBFD2
:100290000FBECDBF8AE0E9E0F1E0DE0111960190EA
:1002A0000D928A95E1F73A98429A3B98439A2198A1
:1002B000299ADE0111969E01255F3F4F81E090E073
:1002C000A217B307A9F14D915D91FA0163E0F6958C
:1002D000E7956A95E1F7FF27BF01660F771FE60FE5
:1002E000F71FB0961181BA01677077277C0102C0B1
:1002F000EE0CFF1C6A95E2F7B701612B6183FA01EE
:10030000FF2753E0F695E7955A95E1F7BF01660F91
:10031000771FE60FF71FB09652814770BC0101C0EE
:10032000660F4A95EAF7462F409545234283C8CF8A
:1003300045E150E064E170E089E090E02A960FB674
:10034000F894DEBF0FBECDBFDF91CF911F91FF901C
:10035000EF90BEC220E030E028173907BCF4289A9D
:100360004FEF5FE965E0415050406040E1F700C069
:1003700000C028984FEF5FE965E041505040604071
:10038000E1F700C000C02F5F3F4FE6CF0895E8E6D9
:10039000F0E08081108208951F920F920FB60F92A5
:1003A00011242F933F934F935F936F937F938F937A
:1003B0009F93AF93BF93EF93FF93E9DFFF91EF918B
:1003C000BF91AF919F918F917F916F915F914F916D
:1003D0003F912F910F900FBE0F901F901895ECE654
:1003E000F0E080818C608083E8E6F0E080818260CC
:1003F0008083089586B182FB882780F991E0892760
:10040000089586B183FB882780F991E089270895B4
:10041000EF92FF920F931F93CF93DF9384E6E82E22
:10042000F12CC0E0D0E000E010E0E4DF882311F020
:100430000F5F1F4FE6DF8111219680E092E1019767
:10044000F1F791E0E91AF10881F7033311052CF077
:1004500083E090E07FDF80E008C0E3972CF082E04B
:1004600090E078DF81E001C082E0DF91CF911F91C1
:100470000F91FF90EF90089583B7817F846083BFD1
:1004800083B7816083BF85B7806685BF8F7D85BF59
:100490007894889583B78E7F83BF0895CF93DF9339
:1004A000C82FF894C13059F030F0C23059F460E0F0
:1004B00080E095DF07C060E081E091DF03C061E08C
:1004C00080E08DDFA5DFD82FC81711F060DF06C0F0
:1004D000D3DF9EDFD82FC81721F3F89478948D2F9F
:1004E00090E0DF91CF910895EF92FF920F931F93C9
:1004F000CF93DF938C017B01C5E0D0E04AE150E06F
:10050000B701C80192D1009789F42EE130E04FEF96
:100510005FE965E0415050406040E1F700C000C035
:1005200021503109A1F7219749F701C05B9A2FEFBC
:100530003FE34BE0215030404040E1F700C000C0B5
:100540005A985B98DF91CF911F910F91FF90EF9098
:10055000089563E171E085E291E0C6CF69E371E05F
:100560008CE491E0C1CFAFDD88DE289A2FEF8FE9D0
:1005700095E0215080409040E1F700C000C05A9AB9
:100580002FEF8FE995E0215080409040E1F700C0C7
:1005900000C05B9A2FEF8FE995E02150804090409A
:1005A000E1F700C000C028985A985B98789430DF33
:1005B000C82F882321F0813019F4D0DF01C0C9DFB2
:1005C0008C2F6CDFF4CFFC0123E0F695E7952A959C
:1005D000E1F7FF279F01220F331FE20FF31FB096B1
:1005E0009C0127703327328181E090E001C0880FA1
:1005F0002A95EAF7662319F0832B82830895809564
:10060000832382830895109208011092070180E7E6
:10061000E6E6F1E0DF011D928A95E9F78091C000DE
:1006200087FF03C080EC90E084CD0895AF92BF9225
:10063000CF92DF92EF92FF920F931F93CF93DF93AE
:100640009C013327F3E036952795FA95E1F7590198
:10065000AA0CBB1CD501A20FB31F9096582F577040
:1006600061E070E0EB0102C0CC0FDD1F5A95E2F7AC
:10067000AE01FC2EEC2EE09401E010E0009739F082
:1006800012966C9112976F2912966C931297DFEF66
:10069000EFECF2E0D150E040F040E1F700C000C0E4
:1006A000009739F012966C9112976E2112966C9306
:1006B00012976FEF7FECC2E061507040C040E1F7ED
:1006C00000C000C0C091DA01D091DB01BE0153E04F
:1006D000769567955A95E1F777276B01CC0CDD1C71
:1006E0006C0D7D1DFB01D0A0C770DD27B80101C0D6
:1006F000660FCA95EAF76D2109F4C0CF892B39F04E
:100700002A0D3B1DF901B0968281482B42838FEF61
:1007100098E00197F1F700C00000DF91CF911F91A1
:100720000F91FF90EF90DF90CF90BF90AF90089522
:10073000CF93DF93EC0161E08091D8019091D901D2
:1007400042DF60E08091D6019091D7013CDFCE017D
:10075000DF91CF916BCF61E08091D8019091D90169
:1007600032DF61E08091D6019091D7012CCFCF93F9
:10077000DF93F1DFC0ECD0E088818D7F888360E07B
:1007800071E080EC90E035DD898180688983DF91BC
:10079000CF9108951F920F920FB60F9211242F93AD
:1007A0003F934F935F936F937F938F939F93AF93F9
:1007B000BF93EF93FF9380EC90E0BBDC20910701A7
:1007C0003091080137FD1DC02091070130910801CB
:1007D0002F363105B0F42091070130910801A901AD
:1007E0004F5F5F4F5093080140930701F901EA59A9
:1007F000FE4F8083E0910701F0910801EA59FE4F16
:10080000108282E691E04CDCFF91EF91BF91AF91B5
:100810009F918F917F916F915F914F913F912F9118
:100820000F900FBE0F901F901895CF92DF92EF920E
:10083000FF920F931F93CF93DF93EB01099000205A
:10084000E9F72197C61BD70BC037D105B0F57A0160
:100850008B016C01D8DEC7016BDF7601F701619176
:100860007F01662321F080EC90E05CDCF7CF80E034
:1008700090E020910701309108012C173D074CF4BE
:10088000E0E0F2E13197F1F701968C3DF5E09F074A
:1008900081F761DF8FEF9FEF90930801809307014D
:1008A000AE01B80186E691E042D031E020E0892B2C
:1008B00009F030E0832F922F02C080E090E0DF91BA
:1008C000CF911F910F91FF90EF90DF90CF900895FF
:1008D0005093D7014093D6017093D9016093D8010A
:1008E0009093DB018093DA0142CFA1E21A2EAA1B7A
:1008F000BB1BFD010DC0AA1FBB1FEE1FFF1FA217D0
:10090000B307E407F50720F0A21BB30BE40BF50BCC
:10091000661F771F881F991F1A9469F76095709555
:10092000809590959B01AC01BD01CF010895FB011D
:10093000DC014150504030F08D910190801919F444
:0E0940000020B9F7881B990B0895F894FFCF9B
:10094E0080250000030000FFFF1400150008001BA7
:10095E00001A005645534E494E4F204C4F572041DA
:10096E00434B0D0A005645534E494E4F20574154A6
:10097E004552204C4F570D0A005645534E494E4F87
:10098E0020484947482041434B0D0A005645534ED7
:10099E00494E4F20574154455220484947480D0A69
:0209AE00000047
:00000001FF
