:1000000033C000004CC000004AC0000048C00000DF
:1000100046C0000044C0000042C0000040C00000D4
:100020003EC000003CC000003AC0000038C00000E4
:1000300036C0000034C0000032C0000030C00000F4
:10004000E8C200002CC0000086C4000028C00000E8
:1000500026C0000024C0000022C0000020C0000014
:100060001EC000001CC0000011241FBECFEFD8E04E
:10007000DEBFCDBF11E0A0E0B1E0E2E4FBE002C0F2
:1000800005900D92A236B107D9F721E0A2E6B1E0C2
:1000900001C01D92A93EB207E1F70CD250C5B0CF06
:1000A0000FB6F8946093E5017093E6018093E70141
:1000B0009093E8010FBE0895FC010FB6F89460918B
:1000C000E5017091E6018091E7019091E8010FBE92
:1000D000309721F0608371838283938308958F9397
:1000E0008FB78F93F8948091E5018F5F8093E5013E
:1000F0008091E6018F4F8093E6018091E7018F4F59
:100100008093E7018091E8018F4F8093E8018F9100
:100110008FBF8F910895CF93DF931F92CDB7DEB736
:100120008FEF809364008FB78983F89489815F9300
:1001300050E85093610050E0509361005F918FBF91
:100140000F90DF91CF910895CF93DF931F92CDB79A
:10015000DEB79FB79983F8949981811106C06095A5
:10016000809164006823609364009FBF0F90DF91CB
:10017000CF910895FC01208125FFFCCF668380E0AC
:100180000895FC01208127FFFCCF86810895CF923E
:10019000DF92EF92FF920F931F93CF93DF93EC01C7
:1001A0006A017B018881B901A80181FD11C0A3E02A
:1001B0007695679557954795AA95D1F7D901C801C6
:1001C000E3E1B695A79597958795EA95D1F710C085
:1001D000E4E07695679557954795EA95D1F7D9016B
:1001E000C801F4E1B695A79597958795FA95D1F74B
:1001F0004C155D056E057F05D0F0C816D906EA06D8
:10020000FB06A8F0C901B80124E09695879577957B
:1002100067952A95D1F7A701960148D4DA01C9015B
:100220000197A109B1099D838C8381E001C080E021
:10023000DF91CF911F910F91FF90EF90DF90CF90C2
:1002400008950F931F93CF93DF93EC018B01803CB4
:10025000910519F462E080E077DF8A818F738A83E9
:10026000F8019681358184812A81482F4370440F9B
:10027000297F242B2A8329818470880F880F2B7F64
:10028000822B89838A818F7C832B8A838A81282F82
:10029000277FF8E09F9FC0011124822B8A83F801F9
:1002A000408151816281738100E010E22CE130E0F5
:1002B000CE016DDF998198609983998190619983CE
:1002C000DF91CF911F910F910895EF92FF921F93AD
:1002D000CF93DF93CDB7DEB72A970FB6F894DEBF82
:1002E0000FBECDBF8AE0E9E0F1E0DE01119601909A
:1002F0000D928A95E1F73A98429A3B98439A219851
:10030000299ADE0111969E01255F3F4F81E090E022
:10031000A217B307A9F14D915D91FA0163E0F6953B
:10032000E7956A95E1F7FF27BF01660F771FE60F94
:10033000F71FB0961181BA01677077277C0102C060
:10034000EE0CFF1C6A95E2F7B701612B6183FA019D
:10035000FF2753E0F695E7955A95E1F7BF01660F41
:10036000771FE60FF71FB09652814770BC0101C09E
:10037000660F4A95EAF7462F409545234283C8CF3A
:1003800045E150E064E170E089E090E02A960FB624
:10039000F894DEBF0FBECDBFDF91CF911F91FF90CC
:1003A000EF9077C323B7217F23BF23B7216023BFFB
:1003B00025B7206625BF2F7D25BF615071098109B2
:1003C000910910F08895F9CF83B78E7F83BF089588
:1003D00044E650E080E090E020E030E0329902C056
:1003E0002F5F3F4F339B0196E0E0F4E23197F1F746
:1003F0004150510999F72C3431052CF08C3491057A
:100400003CF480E008958C34910514F081E0089567
:1004100082E0089520E030E028173907BCF4289ADC
:100420004FEF5FE965E0415050406040E1F700C0A8
:1004300000C028984FEF5FE965E0415050406040B0
:10044000E1F700C000C02F5F3F4FE6CF08950F9344
:100450001F93CF93DF93EC018B014AE150E0C6D2AA
:100460000097B9F42FEF3FE945E02150304040407C
:10047000E1F700C000C05A986EE170E080E090E0C3
:100480002CD190DF4AE150E0B801CE01AFD2009705
:1004900009F05B9A2FEF3FE34BE0215030404040A2
:1004A000E1F700C000C05A985B98DF91CF911F918F
:1004B0000F910895CF93DF93CDB7DEB728970FB68E
:1004C000F894DEBF0FBECDBF26DEFFDE289A2FEFE9
:1004D0008FE995E0215080409040E1F700C000C0D6
:1004E0005A9A2FEF8FE995E0215080409040E1F734
:1004F00000C000C05B9A2FEF8FE995E0215080404B
:100500009040E1F700C000C028985A985B9840E0FE
:1005100060E070E28CE190E0E7D0789459DF182F2A
:10052000813099F040F08230D1F482E090E072DFC7
:10053000E12CF12C16C081E090E06CDF63E171E00A
:1005400085E291E084DF7C010CC083E090E062DF13
:1005500069E371E08CE491E07ADF7C0102C0E12C78
:10056000F12CCE010596A8DDEF2829F488E691E06C
:10057000A0E0B0E004C080E19EE0A0E0B0E0CD806B
:10058000DE80EF80F884C80ED91EEA1EFB1E68E7E5
:1005900070E080E090E0A1D005DF1ADF1813BECF35
:1005A0001230A9F38D809E80AF80B884CE01019671
:1005B00083DD8C149D04AE04BF0448F489819A81C4
:1005C000AB81BC818C159D05AE05BF05C8F4C81470
:1005D000D904EA04FB04B8F489819A81AB81BC8117
:1005E0008C159D05AE05BF0570F031E020E0881543
:1005F0009905AA05BB0508F030E0832F922F05C0AE
:1006000081E090E002C080E090E0892B09F4BFCF48
:1006100085CF1F920F920FB60F9211242F933F9305
:100620004F935F936F937F938F939F93AF93BF93FA
:10063000EF93FF938091690190916A0101969093E5
:100640006A018093690120916701309168018217E6
:10065000930730F010926A011092690140DD2CC0BE
:100660002091690130916A01809165019091660144
:100670002817390709F5809162018823E9F0E82FEE
:10068000F0E093E0F695E7959A95E1F79F01220F48
:10069000331FE20FF31FB0963281282F277081E0BD
:1006A00090E001C0880F2A95EAF7982F9095932340
:1006B00092839281892B8283FF91EF91BF91AF91B9
:1006C0009F918F917F916F915F914F913F912F916A
:1006D0000F900FBE0F901F9018959B01AC01A09139
:1006E0006701B091680104C2CF93DF932091630149
:1006F00030916401232B09F044C0DC01CB0140930D
:100700006201E42FF0E023E0F695E7952A95E1F702
:100710009F01220F331FE20FF31FB09652814770E3
:10072000C1E0D0E09E0101C0220F4A95EAF7252BD7
:10073000228362E1B695A795979587956A95D1F73B
:100740009093680180936701BC01769567957093DB
:1007500066016093650160E070E0CB01A1DC60E2BE
:1007600080E0F2DC81E883BD14BC85E085BD80912A
:100770006E00816080936E0013BCD0936401C093BF
:100780006301DF91CF910895FC0123E0F695E79591
:100790002A95E1F7FF279F01220F331FE20FF31F76
:1007A000B0969C0127703327328181E090E001C030
:1007B000880F2A95EAF7662319F0832B8283089520
:1007C0008095832382830895109208011092070177
:1007D00080E7EFE6F1E0DF011D928A95E9F780916D
:1007E000C00087FF03C080EC90E0CBCC0895AF92AF
:1007F000BF92CF92DF92EF92FF920F931F93CF930E
:10080000DF939C013327F3E036952795FA95E1F7BE
:100810005901AA0CBB1CD501A20FB31F9096582FEB
:10082000577061E070E0EB0102C0CC0FDD1F5A95FC
:10083000E2F7AE01FC2EEC2EE09401E010E0009710
:1008400039F012966C9112976F2912966C93129749
:10085000DFEFEFECF2E0D150E040F040E1F700C014
:1008600000C0009739F012966C9112976E21129683
:100870006C9312976FEF7FECC2E061507040C04004
:10088000E1F700C000C0C091E301D091E401BE01D6
:1008900053E0769567955A95E1F777276B01CC0C75
:1008A000DD1C6C0D7D1DFB01D0A0C770DD27B801DC
:1008B00001C0660FCA95EAF76D2109F4C0CF892BF4
:1008C00039F02A0D3B1DF901B0968281482B4283F5
:1008D0008FEF98E00197F1F700C00000DF91CF9112
:1008E0001F910F91FF90EF90DF90CF90BF90AF904E
:1008F0000895CF93DF93EC0161E08091E101909145
:10090000E20142DF60E08091DF019091E0013CDF95
:10091000CE01DF91CF916BCF61E08091E1019091A9
:10092000E20132DF61E08091DF019091E0012CCFA4
:10093000CF93DF93F1DFC0ECD0E088818D7F888397
:1009400060E071E080EC90E07CDC898180688983E4
:10095000DF91CF9108951F920F920FB60F9211243D
:100960002F933F934F935F936F937F938F939F93B7
:10097000AF93BF93EF93FF9380EC90E002DC209164
:1009800007013091080137FD1DC02091070130910A
:1009900008012F363105B0F420910701309108018C
:1009A000A9014F5F5F4F5093080140930701F90180
:1009B000E159FE4F8083E0910701F0910801E15970
:1009C000FE4F10828BE691E077DBFF91EF91BF91B4
:1009D000AF919F918F917F916F915F914F913F91D7
:1009E0002F910F900FBE0F901F901895CF92DF920E
:1009F000EF92FF920F931F93CF93DF93EB01099038
:100A00000020E9F72197C61BD70BC037D105B0F5F9
:100A10007A018B016C01D8DEC7016BDF7601F7012B
:100A200061917F01662321F080EC90E0A3DBF7CF9A
:100A300080E090E020910701309108012C173D07DC
:100A40004CF4E0E0F2E13197F1F701968C3DF5E0EE
:100A50009F0781F761DF8FEF9FEF909308018093ED
:100A60000701AE01B8018FE691E05BD031E020E0F4
:100A7000892B09F030E0832F922F02C080E090E0B4
:100A8000DF91CF911F910F91FF90EF90DF90CF906A
:100A900008955093E0014093DF017093E201609369
:100AA000E1019093E4018093E30142CFA1E21A2E89
:100AB000AA1BBB1BFD010DC0AA1FBB1FEE1FFF1F02
:100AC000A217B307E407F50720F0A21BB30BE40B52
:100AD000F50B661F771F881F991F1A9469F7609599
:100AE0007095809590959B01AC01BD01CF01089553
:100AF00009D0A59F900DB49F900DA49F800D911DCE
:100B000011240895A29FB001B39FC001A39F700D4F
:100B1000811D1124911DB29F700D811D1124911D05
:100B20000895FB01DC014150504030F08D9101905F
:100B3000801919F40020B9F7881B990B0895F894CF
:020B4000FFCFE5
:100B420080250000030000FFFF1400150008001BB1
:100B5200001A005645534E494E4F204C4F572041E4
:100B6200434B0D0A005645534E494E4F20574154B0
:100B72004552204C4F570D0A005645534E494E4F91
:100B820020484947482041434B0D0A005645534EE1
:100B9200494E4F20574154455220484947480D0A73
:020BA200000051
:00000001FF
